:020000040800F2
:10000000200900209D0500088102000883020008E5
:100010008F0200089B020008A702000800000000F1
:10002000000000000000000000000000B302000813
:10003000B502000800000000B3050008B702000880
:10004000B7050008B7050008B7050008BB0200089F
:10005000B7050008B7050008B9020008B705000891
:10006000B7050008B7050008B7050008B705000880
:10007000B7050008B7050008B7050008B705000870
:10008000B7050008B7050008B7050008B705000860
:10009000B7050008B7050008B7050008B705000850
:1000A000B7050008B7050008B7050008B705000840
:1000B000B7050008B7050008B7050008B705000830
:1000C000B7050008B7050008B7050008B705000820
:1000D000B7050008DB14000833310008B705000835
:1000E000B7050008B7050008B7050008B705000800
:1000F000B7050008B7050008B7050008B7050008F0
:10010000B7050008B7050008B7050008B7050008DF
:10011000B7050008B7050008B7050008B7050008CF
:10012000B7050008B7050008B7050008B7050008BF
:1001300000F002F800F094F80AA090E8000C824465
:100140008344AAF10107DA4501D100F089F8AFF242
:10015000090EBAE80F0013F0010F18BFFB1A43F0A5
:1001600001031847DC570000FC570000103A24BF79
:1001700078C878C1FAD8520724BF30C830C144BF0C
:1001800004680C607047000000230024002500264E
:10019000103A28BF78C1FBD8520728BF30C148BFEA
:1001A0000B6070476E2903F02184702903F091875A
:1001B000662905F05783652905F05483672905F002
:1001C00051836129AFF3008003681B0A28BF41F007
:1001D0008001692903F00681642903F003817529F0
:1001E00003F000816F2903F01E87782903F05D87F3
:1001F000E92903F0B986E42903F0B686F52903F06E
:10020000B386EF2903F01B87F82903F05C870368A6
:10021000DB0928BF41F08001632903F03A86732986
:1002200003F03F86E32904F08380F32904F08880FB
:10023000002070471FB59DE8030003F00FFB03F09B
:10024000C9FF04000020002104F032FE401C606061
:100250000020002104F016FEE0601FBD10B510BDA7
:1002600004F05CF91146FFF7E5FF01F0A5FC04F08E
:1002700088F903B4FFF7F2FF03BC04F0F9F90000BA
:1002800070470EA11C4801F004F900BFFEE71BA156
:10029000194801F0FEF800BFFEE727A1164801F05B
:1002A000F8F800BFFEE733A1134801F0F2F800BFF1
:1002B000FEE7704770477047704770470D0A2A2A5B
:1002C0002A2A2A2A2A2A2A2A2A2A2A2A2A2A2A2A8E
:1002D0002A486172644661756C745F48616E646C33
:1002E00065722A2A2A2A2A2A2A2A2A2A2A2A2A2AEB
:1002F0002A2A2A2A2A0D0A00003801400D0A2A2A31
:100300002A2A2A2A2A2A2A2A2A2A2A2A2A2A2A2A4D
:100310002A4D656D4D616E6167655F48616E646C05
:1003200065722A2A2A2A2A2A2A2A2A2A2A2A2A2AAA
:100330002A2A2A2A2A0D0A000D0A2A2A2A2A2A2AC1
:100340002A2A2A2A2A2A2A2A2A2A2A2A2A42757361
:100350004661756C745F48616E646C65722A2A2A06
:100360002A2A2A2A2A2A2A2A2A2A2A2A2A2A2A2AED
:100370000D0A00000D0A2A2A2A2A2A2A2A2A2A2AAB
:100380002A2A2A2A2A2A2A2A2A5573616765466157
:10039000756C745F48616E646C65722A2A2A2A2A19
:1003A0002A2A2A2A2A2A2A2A2A2A2A2A2A2A0D0AEA
:1003B000000000000CB50020019000906C4800681F
:1003C00040F480306A49086000BF6948006800F462
:1003D000003000900198401C0190009818B90198D5
:1003E000B0F5A06FF1D16248006800F4003010B1A0
:1003F0000120009001E0002000900098012843D1E6
:100400005C48006840F010005A49086008460068DF
:1004100020F0030008600846006840F00200086011
:10042000534840685249486008464068486008465A
:10043000406840F4806048600846406820F47C10C2
:1004400048600846406840F48810486008460068E4
:1004500040F08070086000BF4548006800F0007000
:100460000028F9D04248406820F003004049486025
:100470000846406840F00200486000BF3C484068C1
:1004800000F00C000828F9D10CBD10B5FFF792FF61
:1004900010BD10B53648006840F0010034490860CE
:1004A00008464068344908403149486008460068B9
:1004B000324908402E4908600846006820F4802030
:1004C00008600846406820F4FE0048604FF41F00B2
:1004D0008860FFF7DAFF4FF000602949086010BD1F
:1004E00010B5002100200022214B5B6803F00C01B5
:1004F00021B1042906D0082928D107E0214B224C3C
:10050000236027E0214B204C236023E0184B5B68DD
:1005100003F47010164B5B6803F48032022303EB84
:10052000904022B91A4B4343174C23600DE0104B07
:100530005B6803F4003323B1164B4343124C236032
:1005400003E0124B4343104C236003E00D4B0E4C71
:10055000236000BF00BF064B5B68C3F303130E4C60
:10056000E15C094B1B68CB40074C236010BD0000C9
:1005700000100240002002400000FFF8FFFFF6FEDE
:1005800008ED00E000127A0000000020001BB70018
:1005900000093D00808D5B00040000200948804771
:1005A00009480047FEE7FEE7FEE7FEE7FEE7FEE755
:1005B000FEE7FEE7FEE7FEE704480549054A064B6D
:1005C000704700009304000831010008200100205A
:1005D000200900202005002020050020314901438A
:1005E000314A1160704770B5002100230F22C47892
:1005F00004B32D4C246804F4E064C4F5E064210ADB
:10060000C1F10403CA40447804FA03F18478144029
:1006100021430901254C0678A155047804F01F05F3
:100620000124AC4005786D11AD0005F1E025C5F859
:10063000004109E0047804F01F050124AC401C4D82
:100640000678761145F8264070BD1A4A0A400243E2
:10065000154B1B1F1A60704739B1134A121D1268DF
:100660000243114B1B1D1A6006E00F4A121D12684F
:1006700082430D4B1B1D1A607047042808D14FF0B0
:10068000E021096941F004014FF0E022116107E027
:100690004FF0E021096921F004014FF0E0221161DF
:1006A000704700000000FA050CED00E000E400E0F7
:1006B00080E100E080FFFF1F10B50446CC48844273
:1006C00008D10121042000F02DFB0021042000F0BE
:1006D00029FB46E0C748844208D10121082000F0E8
:1006E00021FB0021082000F01DFB3AE0C2488442B3
:1006F00008D10121102000F015FB0021102000F08E
:1007000011FB2EE0BD48844208D10121202000F0D9
:1007100009FB0021202000F005FB22E0B8488442BC
:1007200008D10121402000F0FDFA0021402000F016
:10073000F9FA16E0B348844208D10121802000F084
:10074000F1FA0021802000F0EDFA0AE0AE48844280
:1007500007D10121801500F0E5FA0021A01500F075
:10076000E1FA10BD10B50121084600F0DBFA0021C6
:10077000012000F0D7FA10BD2DE9F0410246002516
:100780000026002000230024002791F803C00CF06D
:100790000F0591F803C00CF0100CBCF1000F03D052
:1007A00091F802C04CEA050591F800C0BCF1000FB9
:1007B00031D0146800202BE04FF0010C0CFA00F34C
:1007C000B1F800C00CEA03069E4220D183004FF02E
:1007D0000F0C0CFA03F7BC4305FA03FC4CEA0404C3
:1007E00091F803C0BCF1280F06D14FF0010C0CFAB0
:1007F00000FCC2F814C00AE091F803C0BCF1480F35
:1008000005D14FF0010C0CFA00FCC2F810C0401CDE
:100810000828D1D31460B1F800C0BCF1FF0F34DD5B
:10082000546800202EE000F1080C4FF0010808FA8F
:100830000CF3B1F800C00CEA03069E4221D18300FC
:100840004FF00F0C0CFA03F7BC4305FA03FC4CEA1B
:10085000040491F803C0BCF1280F05D100F1080C85
:1008600008FA0CF8C2F8148091F803C0BCF1480FE4
:1008700007D100F1080C4FF0010808FA0CF8C2F893
:100880001080401C0828CED35460BDE8F0814FF69C
:10089000FF710180022181700421C17070470246FE
:1008A000002093680B400BB1012000E0002070474E
:1008B0000146886880B2704702460020D3680B402A
:1008C0000BB1012000E0002070470146C86880B2EB
:1008D000704701617047416170470AB1016100E0F2
:1008E00041617047C16070474FF480320A438261B2
:1008F0008161826182698269704702460020434BB0
:1009000018684FF68073184040EA021008433F4BC6
:10091000186070473E49C8617047F0B50A46002329
:1009200000240021002500F00046B6F1004F02D15E
:10093000364EF16901E0354E7168C0F3034583B26C
:1009400000F44016B6F5401F08D121F070612F4E1B
:10095000766826F070662D4F7E6012E000F48016F7
:10096000B6F5801F06D1032606FA05F4A14341F02F
:10097000706106E0460D360103FA06F6B14341F018
:10098000706122B1460D360103FA06F6314300F0DC
:100990000046B6F1004F02D11C4EF16101E01B4E42
:1009A0007160F0BD30B500228B071C0F0F2303FAD6
:1009B00004F2164B08338C1053F824309343134C35
:1009C00008348D1044F8253023468C1053F8243019
:1009D0008C07240F00FA04F423430C4C08348D10C8
:1009E00044F8253030BD0A49DC310860704700000A
:1009F00000080140000C01400010014000140140BB
:100A000000180140001C014000200140000001408E
:100A100000002042DF48006840F00100DD49086026
:100A200008464068DC490840DA49486008460068E2
:100A3000DA490840D74908600846006820F4802059
:100A400008600846406820F4FE0048604FF41F002C
:100A500088607047CF49096821F48031CD4A116020
:100A60001146096821F480211160B0F5803F03D060
:100A7000B0F5802F0ED106E0C649096841F48031F7
:100A8000C44A116007E0C349096841F4A021C14A82
:100A9000116000E000BF00BF704710B501460022A2
:100AA000002300204A11012A02D1BA4C236806E033
:100AB000022A02D1B74C236A01E0B64C636A01F006
:100AC0001F02012494401C400CB1012000E00020D2
:100AD00010BD38B5002000900024002500BF312053
:100AE000FFF7DBFF05460098401C00900098B0F52A
:100AF000A06F01D0002DF2D03120FFF7CEFF08B15A
:100B0000012400E00024204638BD01460020A14A0F
:100B1000106820F0F80040EAC10010607047A0495A
:100B200008607047024600209A4B586820F47C10F9
:100B300042EA01031843974B58607047984908668A
:100B4000704701460020934A506820F00300084394
:100B5000506070478F48406800F00C0070470146B5
:100B600000208C4A506820F0F00008435060704725
:100B700001460020874A506820F4E0600843506036
:100B8000704701460020834A506820F4605040EAD4
:100B9000C1005060704729B17E4A527A02437D4BB2
:100BA0005A7204E07B4A527A82437A4B5A727047F7
:100BB0007B49D8310860704701460020754A50686B
:100BC00020F440400843506070470021714A2032B1
:100BD0001170704A82F82010012802D004280AD12E
:100BE00004E001216B4A2032117005E00521694AB9
:100BF0002032117000E000BF00BF704769490860F3
:100C000070476449096A0143624A11627047654945
:100C100044390860704730B50021002200240023C9
:100C20005C4D6D6805F00C0121B1042905D008293F
:100C300023D105E05C4D056022E05C4D05601FE0BE
:100C4000544D6D6805F47012524D6D6805F4803492
:100C5000022505EB92421CB9554D554305600BE04A
:100C60004C4D6D6805F400351DB1524D554305607E
:100C700002E04E4D5543056002E04B4D056000BF5C
:100C800000BF444D6D6805F0F00109094A4D6B5CE9
:100C90000568DD4045603F4D6D6805F4E061090A77
:100CA000454D6B5C4568DD4085603A4D6D6805F4E7
:100CB0006051C90A404D6B5C4568DD40C560354DEB
:100CC0006D6805F44041890B3C4D6B5CC568B5FB14
:100CD000F3F5056130BD29B12E4A526902432D4B0F
:100CE0005A6104E02B4A526982432A4B5A61704789
:100CF00029B1284A92690243264B9A6104E0254AA9
:100D000092698243234B9A61704729B1214AD26983
:100D10000243204BDA6104E01E4AD26982431D4B34
:100D2000DA61704729B11B4AD2680243194BDA6075
:100D300004E0184AD2688243164BDA60704729B142
:100D4000144A12690243134B1A6104E0114A1269F2
:100D50008243104B1A61704712494039086070474E
:100D60000F49C86470470B49C87170470948406A09
:100D700040F0807007494862704701460020054AEC
:100D800092680A400AB1012000E000207047014942
:100D900088727047001002400000FFF8FFFFF6FE67
:100DA000000042428004424200127A00001BB70059
:100DB00000093D00808D5B0014000020240000200D
:100DC00010B50446FB48844209D101218803FFF78E
:100DD000A9FF00214FF48040FFF7A4FF32E0F6485E
:100DE000844209D101214804FFF7A9FF00214FF4F3
:100DF0000030FFF7A4FF25E0F048844209D101212B
:100E00008804FFF79CFF00214FF48020FFF797FF35
:100E100018E0EB48844209D10121C804FFF78FFF95
:100E200000214FF40020FFF78AFF0BE0E5488442E1
:100E300008D101210805FFF782FF00214FF480103F
:100E4000FFF77DFF10BD2DE9F04786B005460E4641
:100E50000024A24600BFA1460027B08900B100BF10
:100E60002F462C8A4CF6FF700440F08804432C82F5
:100E7000AC894EF6F3100440B0883189084371897B
:100E800008430443AC81AC8A4FF6FF400440B0896C
:100E90000443AC8201A8FFF7BEFEC648874202D1D8
:100EA000DDF810A001E0DDF80CA0A88900F40040F6
:100EB00040B10AEBCA0000EB0A1031684900B0FBF0
:100EC000F1F807E00AEBCA0000EB0A10316889006C
:100ED000B0FBF1F86420B8FBF0F0040120096421B4
:100EE00001FB1089A88900F4004040B1322000EBDA
:100EF000C900B0FBF1F000F00700044308E0322025
:100F000000EB09106421B0FBF1F000F00F00044386
:100F10002C8106B0BDE8F0874FF416510160002126
:100F20008180C18001810C21418100218181704734
:100F300010B502460020108A4FF2FF0318400B88BC
:100F40004C8823438C882343CC8823431843108246
:100F500010BD0021018041808180C180704721B196
:100F6000828942F40052828104E082894DF6FF7347
:100F70001A4082817047F0B5034600240026002500
:100F8000002040F66A17B94200D100BF1846C1F3ED
:100F9000421401F01F06012707FA06F5012C01D1C2
:100FA0000C3004E0022C01D1103000E014301AB1F2
:100FB00007682F43076002E00768AF430760F0BD92
:100FC0001AB1838A0B43838202E0838A8B43838234
:100FD0007047028A4FF6F0731A400282028A0A436F
:100FE0000282704782894FF2FF731A4082818289A0
:100FF0000A438281704721B1828942F002028281D4
:1010000004E082894FF6FD731A4082817047028A9C
:101010004FF6DF731A400282028A0A430282704747
:1010200021B1028A42F48042028204E0028A4BF635
:10103000FF731A4002827047C1F308028280704732
:1010400001468888C0F308007047818941F001019A
:1010500081817047028BD2B20283028B42EA012265
:1010600002837047028B02F47F420283028B0A43A1
:101070000283704721B1828A42F02002828204E01A
:10108000828A4FF6DF731A408282704721B1828ACA
:1010900042F01002828204E0828A4FF6EF731A4017
:1010A0008282704721B1828A42F00802828204E083
:1010B000828A4FF6F7731A408282704721B1828983
:1010C00042F40042828103E08289C2F30E028281EF
:1010D000704721B1828A42F40062828204E0828AEF
:1010E0004FF2FF731A4082827047828A4FF6FB7379
:1010F0001A408282828A0A438282704721B1828AA0
:1011000042F00202828204E0828A4FF6FD731A40A6
:101110008282704702460020B1F5007F00D100BFF7
:1011200013880B400BB1012000E00020704701F450
:101130000072B2F5007F00D100BFCA430280704741
:1011400070B50246002400230025002040F66A16F0
:10115000B14200D100BFC1F3421501F01F030126C7
:1011600006FA03F3012D02D19689334006E0022DE1
:1011700002D1168A334001E0968A33400C120126D0
:1011800006FA04F41688344013B10CB1012000E0D3
:10119000002070BD10B50022002340F66A14A14261
:1011A00000D100BF0A1201249440A3B2DC430480A2
:1011B00010BD0000003801400044004000480040DD
:1011C000004C00400050004010B504462246082163
:1011D0001148FFF782FB1148047010BD08B50121CA
:1011E0000820FFF785FD01210846FFF781FD012159
:1011F0000B48FFF792FB10208DF803000820ADF894
:10120000000003208DF8020069460348FFF7B4FA96
:101210000020FFF7D9FF08BD000C01402800002086
:10122000000230004FF0E020006920F004004FF091
:10123000E02108610920364908700846007800EB73
:101240004001C1EBC0104FF6FF7101EAC000314907
:1012500008807047002120F07F402D4A12784243D9
:101260004FF0E0235A6100229A6101221A6100BF07
:101270004FF0E022116901F001021AB101F480324D
:10128000002AF5D000224FF0E0231A619A617047DE
:10129000002100B9704720F07F401E4A1288424367
:1012A0004FF0E0235A6100229A6101221A6100BFC7
:1012B0004FF0E022116901F001021AB101F480320D
:1012C000002AF5D000224FF0E0231A619A6100BF96
:1012D000E0E770B50446002600254FF4FA7094FB51
:1012E000F0F0C6B24FF4FA7094FBF0F100FB11403D
:1012F00085B205E04FF4FA70FFF7CAFF701EC6B260
:10130000002EF7D115B12846FFF7C2FF70BD0000CF
:101310002A0000202C00002010B586B004460121D0
:101320000420FFF7E5FC01218803FFF7E1FC18200A
:101330008DF817004FF40070ADF8140003208DF8FD
:10134000160005A96B48FFF717FA04208DF817005F
:101350000002ADF8140003208DF8160005A96548B9
:10136000FFF70AFA01940020ADF810000C20ADF848
:101370000E000020ADF80C00ADF80A00ADF8080032
:1013800001A95D48FFF75FFD01215B48FFF7E7FD1D
:10139000012240F225515848FFF7EDFD25208DF838
:1013A000000001208DF8030000208DF801000220CC
:1013B0008DF802006846FFF716F906B010BD10B5AB
:1013C00086B0044601210420FFF792FC0121480465
:1013D000FFF79BFC18208DF817000420ADF81400CF
:1013E00003208DF8160005A94248FFF7C5F904202F
:1013F0008DF817000820ADF8140003208DF81600B2
:1014000005A93C48FFF7B8F901940020ADF8100099
:101410000C20ADF80E000020ADF80C00ADF80A006D
:10142000ADF8080001A93548FFF70DFD012133484B
:10143000FFF795FD012240F225513048FFF79BFD53
:1014400026208DF8000001208DF8030000208DF883
:1014500001008DF802006846FFF7C5F806B010BD20
:101460002DE9F04107460C46154600260DE014F81C
:10147000011B3846FFF7E0FD00BF40213846FFF76B
:1014800049FE0028F9D0701C86B2AE42EFDBBDE801
:10149000F0810FB430B5CBB0054601AC50A8009038
:1014A0004FF4947101A8009B4F9A01F041FF002076
:1014B00000900BE014F8011B2846FFF7BDFD00BFAC
:1014C00040212846FFF726FE0028F9D02078002882
:1014D000F0D14BB030BC5DF814FB10B540F2255193
:1014E0000548FFF72DFE18B120210348FFF71FFE26
:1014F00010BD0000000801400038014000440040D9
:10150000FA490880704708B501210820FFF7F0FB71
:1015100014208DF803004FF44060ADF80000032064
:101520008DF802006946F248FFF726F90520FFF71B
:10153000E7FF4FF40061EE48FFF7CBF94FF480610D
:10154000EB48FFF7C6F908BD10B54FF40061E84855
:10155000FFF7BFF94FF48061E548FFF7BAF9E349B7
:101560000888FFF777FE4FF40061E148FFF7B3F911
:10157000DE490888FFF76EFE4FF48061DC48FFF714
:10158000AAF910BD10B54FF40061D948FFF7A3F9CF
:101590004FF48061D648FFF79EF9D4490888FFF7D9
:1015A00059FE4FF48061D248FFF793F94FF4006180
:1015B000CF48FFF78EF9CD490888FFF74BFE10BDE5
:1015C00010B504464FF40061C948FFF782F9C749D6
:1015D0000888FFF73FFE4FF48061C548FFF779F9AF
:1015E000C2490888FFF736FE0EE0601E041E07D1D0
:1015F000C0A1C548FFF74DFFFFF7C4FF012010BD94
:10160000BA490888FFF726FE4FF40061B848FFF793
:1016100046F90028E9D14FF48061B548FFF75BF93E
:101620000020ECE710B54FF48061B148FFF753F9A3
:101630004FF40061AE48FFF74EF9AC490888FFF758
:1016400009FE4FF48061AA48FFF743F9A7490888CB
:10165000FFF700FE4FF48061A548FFF73CF910BD8D
:1016600010B54FF48061A248FFF735F94FF40061DF
:101670009F48FFF72EF99D490888FFF7EBFD4FF4CF
:1016800080619B48FFF725F998490888FFF7E2FD3C
:101690004FF480619648FFF71EF910BD70B50446FF
:1016A00000254FF480619248FFF715F923E004F01C
:1016B000800028B14FF400618D48FFF70AF904E07B
:1016C0004FF400618A48FFF706F96006040E874967
:1016D0000888FFF7BFFD4FF480618548FFF7F9F8F0
:1016E00082490888FFF7B6FD4FF480618048FFF714
:1016F000F2F8681CC5B2082DD9DB70BD70B50025A5
:1017000000244FF400617A48FFF7E3F81DE04FF43E
:1017100080617748FFF7DFF874490888FFF79AFD82
:101720004FF480617248FFF7D4F86006040E4FF45E
:1017300000616F48FFF7B3F808B1601CC4B26B4991
:101740000888FFF787FD681CC5B2082DDFDB20463F
:1017500070BD2DE9F04105460E4614460027680687
:10176000070EFFF7F1FE3846FFF798FF41F2883089
:10177000FFF726FF10B10120BDE8F0813046FFF7EA
:101780008DFF41F28830FFF71BFF08B10120F3E71E
:101790004CB12078FFF782FF41F28830FFF710FF4D
:1017A00008B10120E8E7FFF7EDFE0020E4E72DE9AE
:1017B000F04104460D46164600276006070EFFF767
:1017C000C3FE3846FFF76AFF41F28830FFF7F8FEA4
:1017D00010B10120BDE8F0812846FFF75FFF41F21C
:1017E0008830FFF7EDFE08B10120F3E7FFF7ACFE0C
:1017F000791CC8B2FFF752FF41F28830FFF7E0FED4
:1018000008B10120E6E7FFF779FF3070FFF728FF06
:10181000FFF7B8FE0020DDE72DE9F04105460E4652
:1018200014461F464FF0000868064FEA1068FFF79D
:101830008BFE4046FFF732FF41F28830FFF7C0FED3
:1018400010B10120BDE8F0813046FFF727FF41F2DB
:101850008830FFF7B5FE08B10120F3E70DE02078EE
:10186000FFF71CFF41F28830FFF7AAFE08B1012004
:10187000E8E7641C0A20FFF7EDFC381EA7F1010120
:10188000CFB2ECD1FFF77EFE0020DBE72DE9F0417F
:1018900006460F4614461D464FF000084FEA46081C
:1018A000FFF752FE08F0FF00FFF7F8FE41F2883024
:1018B000FFF786FE10B10120BDE8F0813846FFF742
:1018C000EDFE41F28830FFF77BFE08B10120F3E71F
:1018D000FFF73AFE08F10101C8B2FFF7DFFE41F25F
:1018E0008830FFF76DFE88B10120E5E72E0000206B
:1018F000000C01405761697441636B2054696D6548
:101900004F75740D0A0000000038014009E0FFF730
:10191000F5FE2070641C15B9FFF7A2FE01E0FFF789
:1019200081FE281EA5F10101CDB2F0D1FFF72AFEFC
:101930000020C1E710B50022FE214020FFF709FF7B
:1019400010BD08B5002000906A46E7214020FFF74F
:101950002EFF9DF8000008BD70B503460C461546E5
:1019600000210026002200BF13E0985C41400826B9
:101970000BE001F0800020B1312080EA4100C1B2CB
:1019800001E04806010E701EC6B2002EF1DC501CAC
:10199000C2B2A242E9DBA94201D0012070BD002001
:1019A000FCE72DE9FF5F82464FF0000B2AF0030AA7
:1019B000504603F0F9FE019003F0AAFE694A6A4B13
:1019C000CDE9020103F0BCFC80460022674B03F026
:1019D0005FFB0646664A674B03F0B2FA044603F023
:1019E0007DFA8346584604B0BDE8F09F2DE9F84FD4
:1019F00082464FF0000B2AF0030A504603F0D4FE53
:101A0000009003F085FE80465B4A5C4B03F098FC37
:101A1000064600225A4B03F091FD044603F05EFA9D
:101A200083465846BDE8F88F2DE9F84306460C4634
:101A300000270025A846A9468025FFF785FD2846F2
:101A4000FFF72CFE4CF25030FFF7BAFD10B100202A
:101A5000BDE8F8833046FFF721FE4CF25030FFF727
:101A6000AFFD08B10020F3E7FFF76EFD691CC8B2B7
:101A7000FFF714FE05E0FFF767FD691CC8B2FFF72A
:101A80000DFE4CF25030FFF79BFD0028F3D14B20A8
:101A9000FFF7FEFBFFF732FE8DF80000FFF7C2FDF7
:101AA000FFF72CFE8DF80100FFF7BCFDFFF726FEC7
:101AB0000746FFF7D5FDFFF765FD3A460221684668
:101AC000FFF74AFF9DF801009DF8001000EB012090
:101AD0001FFA80F8E32E04D14046FFF762FF8146EB
:101AE00003E04046FFF782FF81461CB1484603F001
:101AF0003BFE20804846ABE708B50020009005205B
:101B0000FFF7FEFCFFF71DFF6420FFF7A3FB00219A
:101B1000E320FFF789FF1B4908604B20FFF7B8FB64
:101B20000021E520FFF780FF164948601E20FFF7DF
:101B3000AFFBFFF706FF1E20FFF7AAFB6A46E62170
:101B40004020FFF706FE6420FFF784FBFFF7F9FE55
:101B50006420FFF77FFBFFF7EDFE6420FFF77AFBC1
:101B600008BD0000D7A3703D0AF765400000F040B3
:101B7000CDCCCCCCCC6C47C07644CF7701405F3F16
:101B8000000018403000002010B54FF4A060FEF7B0
:101B900025FDFFF747FB4FF4E130FFF7BDFB4FF4A6
:101BA000E130FFF70CFCFFF7AEFCFFF717FB1DA1C0
:101BB0002148FFF76EFC10BD00250024FFF7E4FF6D
:101BC00001F041FA03E04FF4FA70FFF761FB00F017
:101BD0003FF80028F7D10120FFF7F6FAFA20FFF7C7
:101BE00057FB0020FFF7F0FA1AE0681C80B20546A8
:101BF00064280ADBFFF780FF10A10F48FFF749FCBC
:101C000000F0C7F8002501F0A1F9002001F0F9F972
:101C1000044614B1204600F0FCF80A20FFF738FB18
:101C2000E3E7000020486172647761726520696EA5
:101C30006974204F4B0D0A00003801404F6E654E0D
:101C400065745F53656E64446174610D0A00000041
:101C500030B58BB000200790089009900A900125BC
:101C6000AFA0B2A3B3A2B5A10090C048FFF711FC8A
:101C700007A8002102910391CDE9041000912B02E5
:101C8000A7A20191A9A1ABA000F00BFB002842D1B3
:101C9000089A91B2079801F09DF9FA2001F0B1F984
:101CA0000446002C33D0204600F0C6FA02282ED17C
:101CB000204600F05BFC062823D2DFE800F0030991
:101CC0000E13181DAAA1A948FFF7E3FB00251DE08C
:101CD000ACA1A648FFF7DDFB18E0B1A1A348FFF7D0
:101CE000D8FB13E0B7A1A148FFF7D3FB0EE0BDA1DD
:101CF0009E48FFF7CEFB09E0C3A19C48FFF7C9FB54
:101D000004E0CCA19948FFF7C4FB00BF00BF07A8BF
:101D100000F04AFA03E0CEA19448FFF7BAFB284648
:101D20000BB030BD70B588B004462021684601F084
:101D30004AFDD0A1204601F090FC2021684601F028
:101D400042FDCD49086803F0E3FC05462A460B46F0
:101D5000CAA1684601F006FB6946204601F0C0FCB6
:101D60002021684601F02FFDC349486803F0D0FCEC
:101D700005462A460B46C5A1684601F0F3FA6946B6
:101D8000204601F0ADFC204601F08BFCC0B208B04B
:101D900070BD30B5A5B000202190229023902490F2
:101DA00000240025BDA17148FFF773FB802101A825
:101DB00001F009FD01A8FFF7B5FF0446002C26D06D
:101DC00021A8052300222146009055A000F0BFFC69
:101DD000C8B908E001A8415D229A501C22902198C0
:101DE0008154681C05B2A542F4DB229A91B2219875
:101DF00001F0F0F8B1A15D48229AFFF74AFB21A853
:101E000000F0D2F903E0B1A15848FFF742FB25B03A
:101E100030BD2DE9F0418CB080460020089009903B
:101E20000A900B900790069005900025002600244C
:101E30000027404600F000FA0546042D25D00F2D5E
:101E40002CD105AB07AA06A9404600F00CFD0646BA
:101E5000D6B9BDF814000090A4A14448DDE90623DA
:101E6000FFF717FB08AADDE9060100F042FD58B9AB
:101E7000A7A13E48FFF70DFB099A91B2089801F01F
:101E8000A9F808A800F090F90BE0404600F09BFF8D
:101E900018B9A5A13548FFF7FCFA02E04FF0FF366C
:101EA00000BF00BF01F052F8701C10B90CB0BDE8C3
:101EB000F0817D21079801F0A2FB0446A2A10798BA
:101EC00001F0B9FB40B10120FFF77EF9FA20FFF7DE
:101ED000DFF90020FFF778F9B4B1701CA0B1641CE1
:101EE00005E014F8012B38467F1C02A90A5420781B
:101EF000302802DB20783928F3DD002002A9C855FC
:101F000002A801F06FFB07460F2D01D0032D05D16C
:101F1000069801F0E6F9079801F0E3F900BFC5E77C
:101F20003634373438393936330000007465737409
:101F30003031000033383435373300004F6E654E92
:101F400065745F4465764C696E6B0D0A50524F495B
:101F5000443A2025732C09415549463A2025732CD3
:101F60000944455649443A25730D0A00003801409A
:101F7000546970733A09C1ACBDD3B3C9B9A60D0A8F
:101F8000000000005741524E3A09C1ACBDD3CAA768
:101F9000B0DCA3BAD0ADD2E9B4EDCEF30D0A0000A7
:101FA0005741524E3A09C1ACBDD3CAA7B0DCA3BA5F
:101FB000B7C7B7A8B5C4636C69656E7469640D0A68
:101FC000000000005741524E3A09C1ACBDD3CAA728
:101FD000B0DCA3BAB7FECEF1C6F7CAA7B0DC0D0AD3
:101FE000000000005741524E3A09C1ACBDD3CAA708
:101FF000B0DCA3BAD3C3BBA7C3FBBBF2C3DCC2EB49
:10200000B4EDCEF30D0A00005741524E3A09C1AC6F
:10201000BDD3CAA7B0DCA3BAB7C7B7A8C1B4BDD3F4
:1020200028B1C8C8E7746F6B656EB7C7B7A8290D2C
:102030000A0000004552523A09C1ACBDD3CAA7B04C
:10204000DCA3BACEB4D6AAB4EDCEF30D0A000000DC
:102050005741524E3A094D5154545F5061636B657C
:1020600074436F6E6E656374204661696C65640DC0
:102070000A0000002C3B00003000002054656D7009
:102080007265747572652C25663B000048756D6934
:10209000646974792C25663B0000000054697073F4
:1020A0003A094F6E654E65745F53656E64446174A2
:1020B000612D4D5154540D0A0000000053656E64AB
:1020C0002025642042797465730D0A005741524EF1
:1020D0003A094544505F4E657742756666657220E1
:1020E0004661696C65640D0A00000000636D6469F7
:1020F000643A2025732C207265713A2025732C20B8
:102100007265715F6C656E3A2025640D0A000000EF
:10211000546970733A0953656E6420436D64526567
:1021200073700D0A00000000546970733A094D5134
:102130005454205075626C6973682053656E642036
:102140004F4B0D0A00000000626565700000000042
:1021500070B504460E460025206898B9012020730A
:10216000304601F08FF820602068E0B10020606008
:10217000A66003E00020216848556D1CA068A842B5
:10218000F8D810E00220207303E0002021684855B1
:102190006D1CA068A842F8D800206060A068B0421A
:1021A00001D20020206070BD10B50446207B0128BC
:1021B00002D1206801F095F8002020606060A060E6
:1021C000207310BD0246002301230DE002F07F00C2
:1021D0000870D2092AB1087840F080000870491CC4
:1021E00001E0184670475B1C042BEFDD4FF0FF3019
:1021F000F8E7F0B504460D4626460123002010609E
:10220000002114E0775C07F07F07106807FB0300EC
:102210001060705C00F0800008B9481CF0BDDB0164
:10222000B3F5001F02D36FF00100F7E7491CA94284
:10223000E8DB4FF0FF30F1E7F8B50446FF272078E0
:102240000511012D01DB0E2D01DD3846F8BD032DF2
:1022500024D1002000906A460421601CFFF7C9FFCA
:102260002044461C0098022803D3207800F0010087
:1022700008B1FF20EAE77078317840EA0120801C3D
:102280000099884201D9FF20E0E7F8A1B01C01F0D5
:10229000D2F908B10F2700E0032700E02F463846A7
:1022A000D4E72DE9FF4F83B082468B469146159CBB
:1022B0000025002002900F270190484601F0F1F917
:1022C0000FFA80F8B9F1000F03D1012007B0BDE883
:1022D000F08F08F10200384487B2109808B145F039
:1022E0000205129878B145F00405129801F0D9F969
:1022F000C0B20290139801F0D4F901460298001D73
:102300000844384487B2119820B1012804D002282B
:1023100008D104E000BF07E045F00C0504E045F0FB
:10232000140501E00220D1E700BF149808B145F080
:102330002405BAF1000F02D0BBF1000F01D1032038
:10234000C4E745F0C005504601F0ABF906465846D3
:1023500001F0A7F93044001D384487B239462046C1
:10236000FFF7F6FE206808B90420AFE73946206879
:1023700001F007FA10216268501C606020688154E7
:10238000D4E90023D118781FFFF71CFF00B2019099
:102390000198002804DA2046FFF706FF052095E79C
:1023A000616801980844606000216268501C6060A8
:1023B0002068815404216268501C60602068815448
:1023C0004D216268501C6060206881545121626810
:1023D000501C60602068815454216268501C606009
:1023E000206881546268501C606020688154042118
:1023F0006268501C6060206881546168481C60609D
:10240000206845540698010A6268501C6060206884
:1024100081540698C1B26268501C60602068815483
:10242000C8F307216268501C6060206881546268AC
:10243000501C6060206800F80280D4E900128818FF
:102440004246494601F0E5F860684044606005F0A6
:102450000400B8B30026139808B986A01390129808
:1024600001F01FF986B2310A6268501C6060206872
:1024700081546268501C606020688654D4E9001260
:1024800088183246129901F0C4F8606830446060E0
:10249000139801F006F986B2310A6268501C606038
:1024A000206881546268501C606020688654D4E9BA
:1024B000001288183246139901F0ABF86068304476
:1024C000606000BF05F08000C8B1504601F0E9F837
:1024D00086B2310A6268501C60602068815462686C
:1024E000501C606020688654D4E900128818324677
:1024F000514601F08EF860683044606000BF05F01E
:102500004000C8B1584601F0CCF886B2310A626882
:10251000501C6060206881546268501C60602068B4
:102520008654D4E9001288183246594601F071F8F1
:1025300060683044606000BF0020C7E610B5044604
:1025400002212046FFF704FE206808B9012010BDD3
:10255000E0216268501C606020688154002162683C
:10256000501C6060206881540020F0E701464878E4
:10257000022801D001207047887810B1887801289E
:1025800001D1C878F7E7FF20F5E72DE9FF4F83B0C9
:10259000834617469946139C00250026002002908A
:1025A00001908046BBF1000F03D1012007B0BDE8C8
:1025B000F08F00260AE00498805D232803D0049859
:1025C000805D2B2801D10220F0E7761C0498805D05
:1025D0000028F0D148F03008119808B148F00108FF
:1025E00006EB0900851C109820B1012804D00228B0
:1025F0000AD105E000BF09E048F00208AD1C05E083
:1026000048F00408AD1C01E00320CFE700BF67B32A
:102610003878022821D14FF0000A00BF50460AF155
:10262000010A385C7D28F9D1AAF1030A0AF10700F2
:1026300002900298A9EB000AE81CA0EB0A012046D0
:10264000FFF786FD206808B90420AFE7EA1CA2EB7B
:102650000A01206801F095F81FE0691D2046FFF788
:1026600077FD206840B90420A0E70AE02463726582
:102670007100000000000000691D206801F081F871
:102680000BE0691D2046FFF763FD206808B90420B0
:102690008CE7691D206801F074F86168481C60606F
:1026A000206800F80180D4E9000281182846FFF76D
:1026B00089FD01900198002804DA2046FFF774FD97
:1026C000052073E76168019808446060C6F307213C
:1026D0006268501C6060206881546268501C6060B1
:1026E00020688654D4E9001288183246049900F014
:1026F00090FF606830446060109860B14FEA1B2121
:102700006268501C6060206881546268501C606080
:10271000206800F802B0C7B1387802280BD1D4E99C
:10272000001288183946029A00F0E6FF61680298A4
:102730000844606009E0D4E9001288184A46394626
:1027400000F0DAFF60684844606000202EE72DE961
:10275000FF4107460D4690461E460A9C0120002177
:10276000CDE90001EB1C0A46FAA1CDE902040A20DA
:10277000FFF70BFF88B96168481C60602068465409
:10278000C5F307216268501C60602068815462684C
:10279000501C60602068855403E0012004B0BDE84F
:1027A000F0810020FAE72DE9F04F85B080460D4614
:1027B0009146012004900027002600244FF0000AD3
:1027C000404600F06EFF00F10D0B584600F05AFD38
:1027D00007461FB9049805B0BDE8F08F4246DEA158
:1027E000384600F0BFFD384600F05BFFC6B2F01D72
:1027F00000EB050AAAEB050000F044FD044624B9ED
:10280000384600F06EFD0498E5E7022020700020B5
:102810006070A67032463946E01C00F06DFF290E4C
:10282000F01C2154C5F30741301D2154C5F3072185
:10283000701D2154B01D255401200021CDE9000157
:1028400053462246C3A1CDE902090A20FFF79DFEA7
:1028500008B900200490384600F043FD204600F0FF
:1028600040FD0498B7E72DE9F84380460C4615462D
:102870001E462F2108F1060000F0C1FE0746002089
:10288000009017B90120BDE8F8837F1C6A46042137
:1028900008F10100FFF7ADFC252000F0F3FC2060FB
:1028A000206808B90220EEE72521206800F069FFC2
:1028B00024223946206800F01FFF243700982C3866
:1028C00030803188481C00F0DDFC2860286820B981
:1028D000206800F006FD0320D5E73288511C2868E7
:1028E00000F04FFF32883946286800F005FF0020CD
:1028F000C9E72DE9FF5F07460D469046384600F0D0
:10290000D0FE86B2284600F0CCFE1FFA80FA4FF0C7
:102910000009F01D00F0B6FC04461CB9012004B00B
:10292000BDE8F09FF11D204600F02BFF8EA001684E
:1029300021608088A08032463946204600F069FE3A
:10294000284600F0AEFE83460120002100915B4640
:102950002A46CDE90208019121460A20FFF715FE1B
:1029600010B94FF0000901E04FF00109204600F0D6
:10297000B8FC4846D3E72DE9FF5F804617469946E5
:102980000E9C0026B246B3460025B8F1000F03D1D5
:10299000012004B0BDE8F09F0BE057F8250008B90E
:1029A0000220F6E757F8250000F07BFE0644681C7D
:1029B000C5B24D45F1DB09EB4900801C00EB060A6E
:1029C0000AF105012046FFF7C3FB206808B9032080
:1029D000DFE782216268501C606020688154D4E97E
:1029E000000281185046FFF7EDFB0FFA80FBBBF1A8
:1029F000000F04DA2046FFF7D7FB0420C9E7606820
:102A0000584460604FEA18216268501C606020687A
:102A100081546268501C6060206800F802800025C4
:102A200024E057F8250000F03CFE0646C6F30721D7
:102A30006268501C6060206881546268501C60604D
:102A400020688654D4E90023D01857F82510324660
:102A500000F0DFFD6068304460600198C1B26268D8
:102A6000501C606020688154681CC5B24D45D8DB9D
:102A700000208EE70146FF208A78A2B9CA78142A7E
:102A800011D10A7932B1012A05D0022A04D0802A54
:102A900006D103E000BF00BF002003E0012001E0F9
:102AA000022000BF00BF70472DE9F05F80460F464F
:102AB00091461C460026B246B3460025B8F1000FE9
:102AC00002D10120BDE8F09F0BE057F8250008B9BE
:102AD0000220F7E757F8250000F0E3FD0644681CE4
:102AE000C5B24D45F1DB022000EB490000EB060AC0
:102AF0000AF105012046FFF72BFB206808B90320E7
:102B0000E0E7A2216268501C606020688154D4E92B
:102B1000000281185046FFF755FB0FFA80FBBBF10E
:102B2000000F04DA2046FFF73FFB0420CAE7606885
:102B3000584460604FEA18216268501C6060206849
:102B400081546268501C6060206800F80280002593
:102B50002CE00000246470007B2264735F696422AF
:102B60003A222573227D000024637273702F0000C7
:102B700057F8250000F095FD0646C6F30721626868
:102B8000501C6060206881546268501C606020683E
:102B90008654D4E90023D01857F82510324600F0A7
:102BA00038FD606830446060681CC5B24D45DFDBAD
:102BB000002087E7014601208A781AB9CA781E2AC0
:102BC00000D1002070472DE9FC5F81460D46144678
:102BD0001E46DDE90C8B99F8000000F00F0A00207A
:102BE00001900AF008000090CAF341008BF8000041
:102BF00001AA042109F10100FFF7FBFA4844471C30
:102C00000198022802D30AF0010010B1FF20BDE8AC
:102C1000FC9F7878397840EA012020802088801C49
:102C20000199884201D9FF20F1E7AFF2C051B81CE9
:102C300000F001FD08B10F20E9E79BF8000020B18A
:102C400001283DD0022877D13BE0009808B1FF2051
:102C5000DDE72188481C00F015FB2860286808B9CA
:102C6000FF20D4E72288511C286800F08AFD2288C2
:102C7000B91C286800F040FD0198801E2188401A88
:102C8000A8F80000B8F80010481C00F0FBFA30600B
:102C9000306820B9286800F024FBFF20B7E7B8F8B7
:102CA0000020511C306800F06CFDB8F80020B4F82A
:102CB00000C0BB1C0CEB0301306800F01DFD4FE0B1
:102CC00000BF2088801C0199884201D9FF209EE71F
:102CD0002088C01C395C2088801C385C41EA0021B7
:102CE0000E9801800E9808B9FF2090E72188481CB3
:102CF00000F0C8FA2860286808B9FF2087E7228812
:102D0000511C286800F03DFD2288B91C286800F09D
:102D1000F3FC0198001F2188401AA8F80000B8F8B9
:102D20000010481C00F0AEFA3060306828B92868FE
:102D300000F0D7FAFF206AE710E0B8F80020511C35
:102D4000306800F01EFDB8F80020B4F800C03B1D4C
:102D50000CEB0301306800F0CFFC01E0FF2056E7E8
:102D600000BF2B21284600F04AFC20B92321284629
:102D700000F045FC08B1FF2049E7002047E770B5A7
:102D800005460C4604212046FFF7E2F9206808B901
:102D9000012070BD40216268501C60602068815431
:102DA00002216268501C60602068815429126268A8
:102DB000501C6060206881546268501C606020680C
:102DC00085540020E5E701464878022801D001201B
:102DD0007047887820B9C8780A2801D10020F7E721
:102DE0000120F5E770B505460C4604212046FFF7A3
:102DF000AFF9206808B9012070BD50216268501CED
:102E000060602068815402216268501C6060206804
:102E1000815429126268501C606020688154626885
:102E2000501C6060206885540020E5E70146487822
:102E3000022801D001207047887820B9C8780A2874
:102E400001D10020F7E70120F5E770B505460C46F3
:102E500004212046FFF77CF9206808B9012070BDE5
:102E600062216268501C606020688154022162689F
:102E7000501C60602068815429126268501C606098
:102E8000206881546268501C60602068855400206E
:102E9000E5E702465078022801D00120704790787B
:102EA000B0EB112F05D1D078CBB2984201D10020E0
:102EB000F4E70120F2E770B505460C4604212046F0
:102EC000FFF746F9206808B9012070BD70216268DB
:102ED000501C60602068815402216268501C606050
:102EE0002068815429126268501C606020688154F7
:102EF0006268501C6060206885540020E5E7014648
:102F00004878022801D001207047887820B9C87815
:102F10000A2801D10020F7E70120F5E710B50446A3
:102F200002212046FFF714F9206808B9012010BDDE
:102F3000C0216268501C6060206881540021626872
:102F4000501C6060206881540020F0E710B580219B
:102F5000874800F016FC00208649088010BD85488F
:102F6000008808B901207047824800888249098892
:102F7000884203D100207F490880F4E77D4800881B
:102F80007D4908800120EEE72DE9F04104460D4619
:102F9000C826204600F085FB87B23A46214677488E
:102FA000FEF75EFA0FE0FFF7DAFF48B929467048EE
:102FB00000F041FB20B1FFF7C9FF0020BDE8F08120
:102FC0000A20FEF765F9301EA6F10101CEB2EAD162
:102FD0000120F3E730B589B004460D46FFF7B6FF90
:102FE0002A4667A101A800F0BDF969A101A8FFF771
:102FF000CBFF20B92A4621466048FEF731FA09B0D6
:1030000030BD70B50546002400BFFFF7A8FF80B9AA
:1030100060A1574800F00FFB044654B13A21204606
:1030200000F0EDFA044614B1641C204670BD002087
:10303000FCE70520FEF72CF9281EA5F101018DB251
:10304000E3D100BFF2E708B501210420FDF750FEEF
:1030500010208DF803008002ADF8000003208DF8E9
:10306000020069464D48FDF787FB00224FF480417E
:103070004A48FDF732FCFA20FEF70AF901229103D3
:103080004648FDF72AFC4FF4FA70FEF701F9FFF706
:103090005DFF43A14448FEF7FCF903E04FF4FA70EA
:1030A000FEF7F6F841A142A0FFF76EFF0028F5D128
:1030B00041A13D48FEF7EDF903E04FF4FA70FEF749
:1030C000E7F83AA13FA0FFF75FFF0028F5D141A143
:1030D0003548FEF7DEF903E04FF4FA70FEF7D8F852
:1030E00032A140A0FFF750FF0028F5D141A12E48A2
:1030F000FEF7CFF903E04FF4FA70FEF7C9F840A1EC
:1031000041A0FFF741FF0028F5D147A12648FEF76F
:10311000C0F903E04FF4FA70FEF7BAF846A148A0F0
:10312000FFF732FF0028F5D150A11F48FEF7B1F993
:1031300008BD10B540F225511048FEF701F8B0B1B6
:103140000C480088802802D300200A4908800B48D8
:10315000001D0088C1B2074802880088401C054B4A
:1031600018800348815420210448FDF7E0FF10BD7A
:103170003C000020380000203A00002000440040BD
:1031800041542B43495053454E443D25640D0A009C
:103190003E0000004950442C000000000010014097
:1031A000312E2041540D0A00003801404F4B0000E1
:1031B00041540D0A00000000322E2043574D4F4469
:1031C000450D0A0041542B43574D4F44453D310DA9
:1031D0000A000000332E2041542B435744484350EB
:1031E0000D0A000041542B4357444843503D312CB5
:1031F000310D0A00342E2043574A41500D0A000079
:10320000474F54204950000041542B43574A4150E6
:103210003D2279737373222C2231323334353637A1
:103220003839220D0A000000352E204349505354EE
:103230004152540D0A000000434F4E4E4543540086
:1032400041542B43495053544152543D225443500E
:10325000222C223138332E3233302E34302E333973
:10326000222C363030320D0A00000000362E204568
:1032700053503832363620496E6974204F4B0D0A50
:103280000000000070B5064600F0C8FA056806F1B7
:103290000B0020F00704B4429CBF002070BD2B46F9
:1032A0006A68BAB11068A04210D304F108018842DC
:1032B0003CBF5068586007D35168101941601168CD
:1032C000091B016058601460101D70BD13465268E0
:1032D000002AE7D12146284600F0ACFA0028DED1CA
:1032E00070BD70B50446051F00F098FA0068002C08
:1032F00014BF446870BD002C18BFAC423CBF2046D0
:103300006468F8D301680A18AA4218BF456003D15F
:103310002A6805461144016028684119A1421CBF72
:103320006C6070BD6168696021680844286070BD88
:103330007CB51D4616460C00009001D02044401E6E
:10334000074B7B442A4669460190304600F077FDE2
:1033500005461CB10020694600F084FD28467CBD6E
:10336000290B00000FB41CB5084B06AA7B44694624
:103370000090059800F063FD04460020694600F0C7
:1033800071FD20461CBC5DF814FB0000F50A00002E
:1033900070B50C460546012A05D02878800600D570
:1033A000EA69002302E0012305E05B1C934202D29C
:1033B000E05C0028F9D1A869E618C01AA861286A5B
:1033C00018442862284600F07FFA04E0D5E901217C
:1033D00014F8010B9047B442F8D3284600F08AFA5B
:1033E00070BD00002DE9F0410646002410687529E3
:1033F000314616A510D000F08EFA002802DA4042BD
:1034000013A507E031688A0701D512A502E0490734
:1034100004D511A5012401E000F086FA00210A225A
:1034200006F1240709E0B0FBF2FCB0FBF2F302FB6B
:103430001C00303078541846491C0028F3D123462C
:103440002A463046BDE8F04100F077BA000000009F
:103450002D0000002B000000200000002DE9F05F8F
:10346000894604464FF0000ADFF874B1FB44C0F807
:1034700020A02046E1688847002874D0252806D07F
:10348000D4E901219047206A401C2062F1E7002620
:103490005F462046E16888472028054607DB312D36
:1034A00005D2781910F8200C08B10643F1E7B007EF
:1034B00001D526F00406C4F81CA00027C4F818A003
:1034C0002A2D09D0284601F0D5FC38B304EB870833
:1034D000303DC8F8185019E059F8041B204604EB99
:1034E00087029161E1688847012F054618D1E0699C
:1034F000002820DA26F020061DE0D8F8180000EB9E
:10350000800005EB40003038C8F818002046E1681C
:103510008847054601F0AEFC0028EED1012F0AD005
:103520002E2D08D12046E16888477F1C0546022FD2
:1035300046F02006C4DBA069002803DA404246F0CA
:103540000106A061F00701D026F010066C2D0BD00B
:10355000682D09D04C2D39D06A2D35D0742D35D039
:103560007A2D33D016E038E0E1682F4620468847B0
:10357000B842054609D16C2F26D04FF48060E1682F
:10358000064320468847054604E06C2F1AD04FF4C6
:10359000807006430DB3A5F14100192802D82035EB
:1035A00046F400664A462946204626604E46FCF709
:1035B000F9FD80B101280BD0F61D26F0070000F1BF
:1035C000080956E74020E4E78020D8E70020D6E746
:1035D00006F104094DE7284652E7206ABDE8F09F4E
:1035E000F823000070B5064600F01CF90468054693
:1035F00030460A22002100F077FD2C6070BD401E8D
:10360000CAB210F8011F8A4202D00029F9D1002065
:10361000704710B5431E13F8014F002CFBD105E095
:1036200011F8014B002C03F8014B03D0521EF7D2C6
:103630000021197010BD30B505460B462A4613F817
:10364000014B12F8010B08B1A042F8D01CB10028C0
:1036500002D06D1CF1E7284630BD40EA0103024666
:1036600030B59B0710D14FF0013400E008C208C903
:103670001D1B9D4315EAC41FF8D013F0FF0102F88B
:10368000011B0DD01B0AF8E711F8013B002B02F8D3
:10369000013B05D011F8013B002B02F8013BF3D1AF
:1036A00030BD10B5431C02E010F8011B71B1810759
:1036B000FAD14FF0013202C88C1A8C4314EAC211BD
:1036C000F9D0C01A0A0603D0C01E10BDC01A10BD22
:1036D0000A0401D0801E10BD0902FCD0401E10BD9E
:1036E000421E12F8013F002BFBD111F8013B002BC9
:1036F00002F8013BF9D17047032A40F2308010F004
:10370000030C00F0158011F8013BBCF1020F62447C
:1037100098BF11F801CB00F8013B38BF11F8013B0D
:10372000A2F1040298BF00F801CB38BF00F8013BBA
:1037300011F0030300F01085083AC0F0088051F83A
:10374000043B083A51F804CBA0E80810F5E7121D35
:103750005CBF51F8043B40F8043BAFF30080D20754
:1037600024BF11F8013B11F801CB48BF11F8012B20
:1037700024BF00F8013B00F801CB48BF00F8012B43
:1037800070474FF000020429C0F0128010F0030CC3
:1037900000F01B80CCF1040CBCF1020F18BF00F844
:1037A000012BA8BF20F8022BA1EB0C0100F00DB8F3
:1037B0005FEAC17C24BF00F8012B00F8012B48BF51
:1037C00000F8012B70474FF0000200B513469446F5
:1037D0009646203922BFA0E80C50A0E80C50B1F169
:1037E0002001BFF4F7AF090728BFA0E80C5048BF7D
:1037F0000CC05DF804EB890028BF40F8042B08BF1B
:10380000704748BF20F8022B11F0804F18BF00F816
:10381000012B7047704770477047000000487047A1
:10382000C400002000487047BC000020704770476B
:103830007047704738B504460A4600206946AFF322
:103840000080002808BF38BD02460099204600F0DD
:10385000C5FC012038BD012000F058BEF8B5AFF31B
:103860000080054600200C46102000BF0646A8191F
:10387000A0420DD9324669460020AFF30080070010
:1038800008BF00F043FE0098A04218BF0546C419C7
:10389000FFF7C4FF05600746F01D20F0070046193A
:1038A000284600F00AF8B44208BFF8BDA21B314612
:1038B0003868BDE8F84000F091BC00210160C0E923
:1038C000011070471020704770B504468569006884
:1038D000C10601D5302600E02026C00707D070BD04
:1038E000D4E9012130469047206A401C20626D1EB9
:1038F000F6D570BD70B5044685690078C00707D15C
:1039000070BDD4E9012120209047206A401C20622C
:103910006D1EF6D570BD09684A0501D540B27047E5
:10392000C905FCD500B2704709684A0501D5C0B287
:103930007047C905FCD580B270472DE9F0470D46A8
:1039400099469246044600F124080168880604D589
:10395000E06921F01001216000E00120A84201DDB2
:10396000471B00E00027A1697A1902EB0900081A39
:10397000A0612078C00602D42046FFF7A5FF0026EC
:1039800008E0D4E901211AF806009047206A401C9B
:10399000761C20624E45F4DB2078C0060AD520460E
:1039A000FFF792FF06E0D4E9012130209047206A1A
:1039B000401C2062381EA7F10107F4DC07E0D4E9BF
:1039C000012118F805009047206A401C2062281E3B
:1039D000A5F10105F3DC2046FFF78CFF20780006F7
:1039E00002D50220BDE8F0870120FBE711680268DC
:1039F000006A530501D508700AE0D30501D5088097
:103A000006E0130603D5C217C1E9000200E0086012
:103A10000120704770472DE9FF4F0C461E464FF0BE
:103A2000FF378BB0D2E90001DDF860800A908A464A
:103A3000C1F30A5505B93D46002108464FF0000084
:103A4000BAF1000F00F4400005DA00EB80004FF4FB
:103A5000400101EA50004FEA9059B9F1010F00DD31
:103A6000B9460A9850EA4A000ED044F61050A5F222
:103A7000FF3545432F14B8F1000F1ED07542291EA3
:103A80001EDDC9F100021CE0B8F1010F4FF000008B
:103A900001D0302103E0F24305E02154401CB04244
:103AA000FBDB30460022002121540B99C1F808802D
:103AB000C1E900200FB0BDE8F08FBD1B6D1CDEE733
:103AC0004A4600DA694206A800F08EFC06AB93E88D
:103AD000070003AB83E8070050460A9900F0EEFDAB
:103AE0008DE80700A0F500501F3800900398002DC6
:103AF0000ADD42F21F014A460844002303A903904D
:103B0000684601F057F809E0A0F500504A461F3812
:103B1000002303A90390684601F061F88DE80700CF
:103B20000004000C03D04FF0FF30410800E01046C5
:103B3000B8F1000F03D00022009215461EE0751E5A
:103B400005D400F065FB303262556D1EF9D5B346E1
:103B50000122084302D000227F1C04E02078302894
:103B600001D100227F1E002A099784D01DE0112D6B
:103B700007DA00F04DFB303262556D1C50EA01024D
:103B8000F5D1084302D00098C8B10EE00021681EAC
:103B900005E0235C625C63542254401E491C814250
:103BA000F7DBAB46A81B401E0990002004F80B0071
:103BB0000B98099AC0F80880C0E9002B7AE7112613
:103BC0004FF0000857E72DE9F04F88460446D21D14
:103BD00022F0070191B0D1E90001CDE90A0101F01D
:103BE00035F902460B98C00F01D02D2007E0206860
:103BF000810701D52B2002E0202101EAC000032A21
:103C0000099001D0072A05DB03464146204600F013
:103C100045FB0BE12078800601D5E06900E0062035
:103C2000B8F1650F814606D0B8F1660F18D0B8F12B
:103C3000670F70D131E00020B9F1110F009001DB66
:103C4000112301E009F101030AAA01A90CA8FFF759
:103C5000E2FEDDE90C70002609F10105834647E02C
:103C600001204B4600904FF000470AAA01A90CA87A
:103C7000FFF7D1FEDDE90DB00C995D46002610B9C5
:103C800009F101000D18B9EB050003D4C0F1FF36AE
:103C900009F10105A5EB09002BE0B9F1010F01DAEB
:103CA0004FF001090020B9F1110F0090484601DDE5
:103CB000112300E003460AAA01A90CA8FFF7ABFEF6
:103CC000DDE90C704D4600268346207800070AD4B3
:103CD000AB4500DA5D4601A8012D04DD411911F85C
:103CE000011C302907D04F4502DA17F1040F04DA1E
:103CF000012082460FE06D1EEEE7002F02DCED1B77
:103D00003E4403E0781CA84200DD7D1CB81B00F196
:103D1000010A4FF000472078000703D4AA4501DBD1
:103D20004FF0FF3A0021B7F1004F0DF143088DF835
:103D3000431024D002202B23002F01DA7F422D23B1
:103D40000A21021EA0F1010000DC5FB197FBF1FC2B
:103D500097FBF1F201FB1C7C17460CF1300C08F8C4
:103D600001CDEEE7A8F1010003702188090501D516
:103D7000452100E06521A0F1010800F8011C099827
:103D80000FA9A1EB0807FF1D00B10120411901EBAC
:103D9000EA70A1693844081A401EA0612078C00664
:103DA00002D42046FFF790FD099828B1D4E90121FB
:103DB0009047206A401C20622078C00622D5204609
:103DC000FFF782FD1EE0002E04DBB34502DD01A8F3
:103DD000805D00E03020D4E901219047206A401C3A
:103DE0002062761CAAF101005FEA000A0AD100F005
:103DF000F1F9C0680168405CD4E901219047206A6C
:103E0000401C2062281EA5F10105DCDC07E0D4E996
:103E1000012118F8010B9047206A401C2062381ECF
:103E2000A7F10107F3DC2046FFF764FD032011B082
:103E300041E6000001694A1C02610878704700B53C
:103E40008FB0CDE901310021059105497944CDE9D3
:103E5000031011466846FFF701FB0FB000BD0000DC
:103E6000E5FFFFFF0A6802F8010B0A607047D1E91D
:103E700000239A4202D2531C0B601070704710B599
:103E8000436913B1AFF3008001E0FFF781FA01202D
:103E900010BD127800F124010A7000224A7001223C
:103EA000EDE711684FF0FF32E9E700002DE9FF5F11
:103EB00015468A460446DFF8AC80F8440027D8E966
:103EC00000103E46CDE9001010E03AF816106A46A0
:103ED00002A800F0FBFA411C07D02178890603D51F
:103EE000E269391891420DD80744761C2078800683
:103EF00002D5E069B84205DDAE42E6DB3AF81600CD
:103F00000028E2D1A069C01BA0612046FFF7DCFCBD
:103F1000D8E90010CDE90010002017E03AF8181099
:103F20006A4602A800F0D2FAB0F1FF3F81460BD0FA
:103F300000250DF1080B05E0D4E901211BF805006F
:103F400090476D1C4D45F7D308F10100B042804603
:103F5000E4DB206A384420622046FFF7CBFCBDE852
:103F6000FF9F0000BE1900002DE9F0418046D21DE0
:103F700022F007020025D2E90002F52915A614D087
:103F8000011E72F1000106DA0023D0EB030063EB9F
:103F9000020211A608E0D8F800108B0701D50FA681
:103FA00002E0490701D50EA601251146002408F1BB
:103FB000240704E000F02CF930323A55641C50EA32
:103FC0000102F7D12B46324621464046BDE8F0417A
:103FD000FFF7B3BC000000002D0000002B00000024
:103FE0002000000030B4002100F1240408E002F0B9
:103FF0000705D208303542EA4372DB086554491C94
:1040000052EA0305F3D10468002310A2250707D55F
:10401000A40600D421B1C46901230DA2641EC461A9
:1040200030BCFFF78ABC10B5044621461068FFF784
:104030007BFC02462046BDE810400023D2E7D21D9B
:1040400022F00701D1E90023CCE7000000000000C6
:1040500030000000F0B40D460188090502D5214C5E
:104060007C4402E01F4C7C440E34002100F1240605
:1040700008E002F00F071209E75D42EA03721B092C
:104080007754491C52EA0307F3D102780023120740
:1040900004D5702D06D009B1022311342246F0BC9C
:1040A000FFF74BBC01231034F8E770B504460D460A
:1040B00021461068FFF738FC024629462046BDE835
:1040C00070400023C6E7D21D22F00703D3E9002386
:1040D000C0E70368126843F0200303600823C3614C
:1040E0000023B7E7201800002DE9F04791460F465E
:1040F00080460446002614F8015B2DB100F062F8FA
:104100000068405DC007F6D12B2D02D02D2D18D0B0
:10411000641E4A463946204600F016F927B1396830
:10412000A14201D1C7F800804FF0020471050BD500
:104130004042002803DDFFF775FB0460A007BDE8DF
:10414000F08746F48066E4E70028F8DAFFF76AFBB8
:1041500004606FF00040F2E710B5203AC0F00B8029
:10416000B1E81850203AA0E81850B1E81850A0E87B
:104170001850BFF4F5AF5FEA027C24BFB1E81850D5
:10418000A0E8185044BF18C918C0BDE810405FEA45
:10419000827C24BF51F8043B40F8043B08BF7047C1
:1041A000D20728BF31F8023B48BF11F8012B28BFC6
:1041B00020F8023B48BF00F8012B704700487047C9
:1041C000BC00002010B500F005F8001D10BD00BFB8
:1041D000E10C000000487047DC0000200346406806
:1041E0008C46002818BF88423CBF03464068F8D37D
:1041F00018681844884207D00CF1030020F007002B
:10420000001D411A521A0146081D0A60FFF769B8DD
:1042100030B5B0F10A024FEA900E71F100034EEA98
:10422000817EB0EB0E0061EB91014FEA101E4EEA69
:10423000017E10EB0E0041EB11114FEA102E4EEAF9
:10424000016E10EB0E0041EB11214FEA104E4EEAC9
:10425000014E10EB0E0041EB1141401841F10001FD
:104260004FEAD00040EA41704FEAD10110EB8005DF
:104270004FEA810444EA907444EB01046D1944EB65
:104280000404521BA3414FF0000348BF0A3200D57B
:1042900030BD401C41F1000130BD00002DE9F0416E
:1042A0001F46044603260168072A01F4006004DB68
:1042B00008B116A505E016A503E008B115A500E0B4
:1042C00015A521F010002060A069C01EA0610FB1EB
:1042D000401EA0612046FFF7F7FA4FB1D4E9012153
:1042E00038469047206A401C2062C01C206206E0CD
:1042F000206AFAE7D4E9012115F8010B9047761EF0
:10430000F8D22046FFF7F6FABDE8F0814E414E00A4
:104310006E616E00494E4600696E660010B54369D5
:1043200013B1AFF3008001E0FFF7C0FD012010BD25
:10433000128800F1240182840022C2840122EDE768
:1043400011684FF0FF32E9E72DE9F05F824615462C
:104350008B4600270AF10104B9460078302801D0C5
:104360009DB113E014F8010B0127782803D05828D9
:1043700001D045B10AE00DB1102D07D1002714F886
:10438000010B102502E0082500E00A250026B046B2
:104390000EE005FB080005FB06F101271FFA80F877
:1043A00001EB1046B6F5803F00D3B94614F8010B77
:1043B000294600F0D8F80028EBDABBF1000F05D051
:1043C0000FB1641E00E05446CBF80040B9F1000F75
:1043D00006D0FFF727FA02210160C81EBDE8F09F52
:1043E00048EA0640FAE700002DE9F0478146164604
:1043F0008AB0354878440DC88DE80D0032487844BD
:10440000801C03AC0DC884E80D0041F69B300844C5
:10441000372190FBF1F290FBF1F5A5F1800501FB4E
:1044200012041B3C02D56442012000E00020DFF8AA
:1044300098A080460027FA44AAF1BE0A0EE0E007E1
:104440000AD03246684607EB470101230AEB810197
:1044500000F0C5FB8DE8070064107F1C002CEED136
:10446000194F7F44AE3F19E0E80715D007EB041061
:104470000DF1180A90E80E008AE80E00C068F042BC
:1044800001D1981908903246012306A903A800F02B
:10449000A6FB03AB83E807006D10641C002DE3D17D
:1044A0004FF0010332466946B8F1000F03A802D06D
:1044B00000F080FB01E000F092FBC9E90001C9F8BF
:1044C00008200AB0BDE8F0873015000070B5164628
:1044D0000C460546FFF776FE036893F801010128B4
:1044E00006D0FF2C0FD8185D68B101202C7070BD6C
:1044F000D3F807013246214603F207130344284646
:10450000BDE8704018474FF0FF3070BD10B500F0A7
:1045100047F8BDE8104000F03DB870477546FFF71A
:104520004DFEAE4605006946534620F0070085461D
:1045300018B020B5FCF740F8BDE820404FF0000669
:104540004FF000074FF000084FF0000B21F007017B
:10455000AC46ACE8C009ACE8C009ACE8C009ACE8BE
:10456000C0098D4670473A2800D2303820F020022A
:10457000412A01D3A2F13700884201D34FF0FF3026
:10458000704710B50446AFF300802046BDE81040E8
:10459000FBF76FBE002801D000F06AB8704700003A
:1045A00010B5012805D0002103A000F067F8012014
:1045B00010BD09A1F8E7000053494752544D454D3D
:1045C0003A204F7574206F662068656170206D65B4
:1045D0006D6F7279000000003A2048656170206DAF
:1045E000656D6F727920636F7272757074656400A7
:1045F0004FF0013C50F8042B51F8043B9A4221D172
:10460000A2EB0C03934313EACC1317D150F8042BFD
:1046100051F8043B9A4215D1A2EB0C03934313EAE1
:10462000CC130BD150F8042B51F8043B9A4209D11A
:10463000A2EB0C03934313EACC13DBD04FF0000042
:10464000704700BFD01A01BAB1FA81F101F0180128
:1046500022FA01F0CB40C1F12001DBB2C0B2C01A96
:104660002CFA01F3D11A914311EAC311E6D1704734
:1046700001491820ABBEFEE72600020070B50546D2
:104680000C460A2000E06D1C00F011F835B12878C6
:104690000028F8D102E0641C00F009F814B1207879
:1046A0000028F8D1BDE870400A20AFF3008008B5BB
:1046B00069468DF800000320ABBE08BD5FEA400CE0
:1046C00008BF91F0000F4FEA8C234FEAC12243EA62
:1046D00051514FEA1C5018BF00F5F0404FEA30002E
:1046E00018BF41F000415FEA6C5C00F02980BCF12A
:1046F000FF3F08BF40F080407047130C06BF120414
:104700004FF0100C4FF0000C130E04BF12020CF10E
:10471000080C130F04BF12010CF1040C930F04BF1B
:1047200092000CF1020CD30F04BF52000CF1010CEB
:1047300011464FF00002A0F11F00A0EB0C007047E3
:1047400011F0004F08BF704731F000413FF4D5AF82
:104750000B0C06BF09044FF0100C4FF0000C0B0EB1
:1047600004BF09020CF1080C0B0F04BF09010CF186
:10477000040C8B0F04BF89000CF1020CCB0F04BF9B
:1047800049000CF1010CCCF12003A0EB0C0022FA43
:1047900003F302FA0CF241EA030100F10100704751
:1047A00020F07F4C80EA030023F07F47ACEB070347
:1047B00003F57C5300F0004003F1FF032DE980492D
:1047C0004FEA154B09B44FEA144325EA0B4E24EA8D
:1047D00003480FF2042606EB132749083E785FEAE8
:1047E000320203FB0667C7F5000707FB06F64FEA30
:1047F00054374FEAD64606F1020607FB066CCCF1A9
:10480000005C4FEA1C472CEA074C07FB06F40CFB44
:1048100006F504EB15464FEA961634BF00204FF01C
:1048200000404FEAD13706FB07FC4FEA1C4C0CFB5B
:104830000BF7D21B03FB0CF761EB07010CFB0EF728
:10484000B0EB074072EB17420CFB08F734BFA2EB4A
:104850000742B2EB074261EB17414FEA0C444FEAC3
:10486000910706FB07FC4FEA1C4C0CFB0BF7B0EB67
:10487000C74072EB573203FB0CF734BFA2EBC742C1
:10488000B2EBC74261EB57310CFB0EF7B0EBC70040
:1048900072EB57720CFB08F734BFA2EBC702B2EB06
:1048A000C70261EB5771039F4FEA816141EA9211A0
:1048B00004EBCC044FEAD1374FEA826206FB07FCD7
:1048C00042EA90124FEA80604FEA1C4C0CFB0BF757
:1048D000D21B03FB0CF761EB07010CFB0EF7B0EBEF
:1048E000074072EB17420CFB08F734BFA2EB0742FC
:1048F000B2EB074261EB17414FEA8C554FEA910743
:1049000004EB9C2406FB07FC4FEA1C4C0CFB0BF74A
:10491000B0EBC74072EB573203FB0CF734BFA2EB8E
:10492000C742B2EBC74261EB57310CFB0EF7B0EB5D
:10493000C70072EB57720CFB08F734BFA2EBC7023B
:10494000B2EBC70261EB577115EB4C254FEA816161
:1049500041EA92114FEA82624FEAD13742EA90125D
:1049600006FB07FC44F100044FEA80604FEA1C4C50
:104970000CFB0BF7D21B03FB0CF761EB07010CFBE5
:104980000EF7B0EB074072EB17420CFB08F734BF91
:10499000A2EB0742B2EB074261EB174115EB1C1586
:1049A0004FEA813141EA92414FEA823242EA904233
:1049B0004FEA80304FEA0C7644F1000448EA0343A2
:1049C0004EEA0B484FF0000EB2EB080C71EB0307F8
:1049D00024BF624639464EEB0E0E4FF0000B001816
:1049E000524149414BEB0B0BB2EB080C71EB030747
:1049F0007BF1000B24BF624639464EEB0E0E4FF0A2
:104A0000000B0018524149414BEB0B0BB2EB080C69
:104A100071EB03077BF1000B24BF624639464EEB76
:104A20000E0E51EA020718BF46F0010616EB0E768D
:104A300055F1000254F1000103D5BDE88901BDE83C
:104A40000088BDE88901BDE80048B619524141EB34
:104A50000101A3F10103704780807F7E7D7C7B7A1A
:104A60007978777676757473727171706F6E6E6D1A
:104A70006C6C6B6A6A6968686766666564646363C0
:104A800062616160605F5F5E5E5D5D5C5C5B5B5A46
:104A90005A595958585757565655555554545353B3
:104AA00052525251515050504F4F4F4E4E4D4D4D0E
:104AB0004C4C4C4B4B4B4A4A4A4949494848484759
:104AC0004747474646464545454444444443434397
:104AD0004342424242414141002B9C4630D4770040
:104AE0002BD01CB54FEA370703B44FF010004FF03E
:104AF0001001BAF1000F06D0BCF1000FDCBF40F08E
:104B0000080040F008014FF000000FBCBDE8104065
:104B10000BF1010BBBF1010F08BF5FEA170722BFC2
:104B200012F1010211F101014FF0004143F10003C4
:104B300000F0004043EA00007047F9D35708D0E77F
:104B400046EA064613F1400F4FEA16461FDD13F101
:104B5000200FDFBF16430A46002120335B42BED040
:104B6000C3F1200746EA064602FA07F74FEA16465F
:104B700046EA0706C3F1200722FA03F201FA07F713
:104B800021FA03F14FF0000342EA0702A7E746EAE1
:104B9000020646EA06464FEA164646EA0106BCBF4A
:104BA00046EA0646360C4FF000034FF000024FF085
:104BB000000194E72DE9804C9A46934670B491E841
:104BC000380007C831EA400C48BF34EA430C03D52B
:104BD000FFF7E6FDFFF780FFF0BCBDE8008C2DE994
:104BE000804C9A46934670B491E8380007C810F09C
:104BF000804F08BF13F0804F03D100F005F8FFF796
:104C00006BFFF0BCBDE8008C20F07F4780EA03001A
:104C100023F07F4C07EB0C03A3F57C5300F000401E
:104C2000A3F1FE0392F0000F00F0B38095F0000FA7
:104C300000F077802DE901494FEA11404FEA144610
:104C400021EA004800FB06FC24EA064708FB06F6BA
:104C500007FB08F800FB07F718EB06484CEB164C6F
:104C60004FEA124B18EB07484FEA15464CEB17403A
:104C700022EA0B4E0BFB06FC25EA06470EFB06F666
:104C800007FB0EFE0BFB07F71EEB064E4CEB164C1C
:104C90004FF000061EEB074E4CEB174B18EB0B08C2
:104CA00040F1000018EB0E0B58EB000840F100003B
:104CB0008F1A4FF000013CBFC943661B14BFB5EB10
:104CC000040C00213CBFC943F61B4FEA17444EEACF
:104CD0008E0E27EA04454FEA1C4704FB07622CEAC4
:104CE000074C05FB07F70CFB05F604FB0CFC16EB69
:104CF000074642EB174216EB0C4642EB1C421BEBFD
:104D0000060658EB0202414146EA9E0601D5BDE87F
:104D10000189B619524141EB0101A3F10103BDE83C
:104D200001894FEA14454FEA114724EA054621EA72
:104D3000074C05FB07F406FB07F70CFB06F105FB28
:104D40000CFC11EB074144EB17444FEA124711EBFF
:104D50000C4144EB1C4422EA074C05FB07F206FB1E
:104D600007F70CFB06F605FB0CFC16EB074642EBBF
:104D7000174216EB0C4642EB1C456A1854F1000131
:104D800048BF7047B619524141EB0101A3F101033D
:104D9000704795F0000F37D04FEA11424FEA1447A1
:104DA00021EA024624EA074C02FB07F106FB07F75B
:104DB0000CFB06F402FB0CFC14EB074441EB17411F
:104DC0004FEA154714EB0C4441EB1C4125EA074C14
:104DD00002FB07F506FB07F70CFB06F602FB0CFCD3
:104DE00016EB074645EB174516EB0C4645EB1C4208
:104DF000121951F1000148BF7047B619524141EBF9
:104E00000101A3F1010370474FEA14454FEA11472E
:104E100024EA054621EA074C05FB07F106FB07F7E4
:104E20000CFB06F24FF0000605FB0CFC12EB0742F0
:104E300041EB174112EB0C4251EB1C4148BF70474C
:104E4000921841EB0101A3F101037047490050EAB8
:104E5000C12018BF04204A0D18BF40F0010040F2E5
:104E6000FF72B2EB515F08BF40F00200012808BF9B
:104E70000520704730380A2801D2012070470020F1
:104E80007047000010B500290AD00878002807D024
:104E900005487844FFF7ACFB002801D0002010BD86
:104EA0000248784410BD0000CE0A0000C60A000087
:104EB00010B500290AD00878002807D005487844A2
:104EC000FFF796FB002801D0002010BD024878446F
:104ED00010BD0000BE0A0000B60A000021F000422A
:104EE000A2F16052B2F5801F01F0004328BFD2F159
:104EF0007F6C0BD95FEA001C43EAC20242EB5070A0
:104F000018BF704728BF20F001007047B2F5801F1E
:104F1000BCBF184670474FEA410C1CF5001F02D277
:104F2000084600F09ABC70B500F0B4FA00000089A1
:104F3000FFF7F6BF4FF00040A0F58000704700007B
:104F400010B591EA030F48BF83F0004300F1FE82E1
:104F5000841A71EB030C05D2121943EB0C03001BEE
:104F600061EB0C01DFF824E14FEA1154A4EB135C70
:104F70001EEA430F18BF9EEA445F73D023EA0E0374
:104F8000DCF1200E21EA045143F4801332D322FADB
:104F90000CFE10EB0E0023FA0CFE41EB0E01CCF1DF
:104FA000200E03FA0EFE10EB0E0051F10001B1F5D8
:104FB000801FCCF1200E32D201EB045112FA0EF216
:104FC000BDE8104058BF7047401C38BF5FEA42023E
:104FD00018BF7047002814BF20F0010041F1000104
:104FE0004FEA410313F5001F38BF7047A1F1C041DC
:104FF00000F09EBA012A43EB0302ACF1200CDCF175
:105000001F0E32BF4FF0000E23FA0CF310EB03001B
:1050100041EB0451B4EB115FD0D0A1EB045101F589
:10502000801149085FEA300001EB04510ED350F1C2
:10503000000038BF12FA0EFE08D1BDE81040C9E7E3
:10504000401C38BF5FEA4202CAD1C3E7BDE8104046
:105050004FEA410313F5001F38BF7047A1F1C0416B
:1050600000F066BA9EEA445F08D011EA5E0FBDE820
:10507000104004BF01F0004100207047BDE810401F
:1050800070B500F007FA00BF64FBBE3E0000E0FF11
:105090002DE9C04130B4DFF8A0C23CEA111418BFBA
:1050A0003CEA131400F0EC8081EA03051CEA1114B9
:1050B00044EAD57418BF1CEA131500F0C780A4EBAE
:1050C00005044FF0004545EAC12145EAC32341EA02
:1050D000505143EA525304F17F74994204F500346D
:1050E0004FEAC0204FEAC22208BF904200F09C80E5
:1050F0004FEA13650FF24016765D4FEA134506FB43
:1051000005F7C7F1807706FB07F74FEAD737A7FB0C
:1051100003687642C8F58038A7FB06CE38BFA8F1F1
:10512000010807FB08E64FF0000EA6FB028CE6FB29
:1051300003CEDCF1000CCEF1004E38BFAEF1010E13
:10514000A6FB0C584FF000074FF00005E6FB0E875A
:10515000A1FB08C6A0FB07CE16EB0E0645F1000525
:10516000E1FB076515F1E04E7EBFA4F580345FEAF0
:1051700046066D4116F1800745F100054FEA1727F5
:105180004FEA066647EA0567A6F1DE46B6F1805F9C
:105190004FEA15251FD9384624F0010C05EBC471E0
:1051A000BCF1FE6F01EB0C1102D8F0BCBDE8008130
:1051B00024425CBF01F5801E9EEAC47F02D4F0BC8D
:1051C000BDE80081244238D4F0BCA1F1C041BDE863
:1051D000004100F0ADB94FEAD22242EA43524FEA11
:1051E000D323A7FB02864FEAD02040EA415007FBB9
:1051F00003661EEA0E0F4FEAD12105FB026658BF77
:10520000A6EB0056B6EB00564FEA520E4EEAC37EAE
:1052100018EB0E0E56EB530EBDD518EB02085E418F
:105220007F1C55F10005B6E74FF480154FF00007DD
:105230004FF000064FF00008ADE7F0BC4FF0000063
:1052400001F1C04101F00041BDE8008111EA0C1FED
:105250000CEA131500D00CE013EA0C1F00F02580B7
:105260004FF00000F0BC81EA030101F00041BDE80D
:105270000081F0BCBDE8004181EA030100F058B9AB
:10528000F0BCBDE8004170B500F004F9097EFC3EB9
:1052900000F007B881EA03014FF0000001F000417F
:1052A000704781EA030100F043B9F0BCBDE800415A
:1052B0004FF0000021497047FFFDFBF9F7F5F4F2CC
:1052C000F0EEEDEBE9E8E6E4E3E1E0DEDDDBDAD8A1
:1052D000D7D5D4D3D1D0CFCDCCCBCAC8C7C6C5C4FF
:1052E000C2C1C0BFBEBDBCBBBAB9B8B7B6B5B4B316
:1052F000B2B1B0AFAEADACABAAA9A8A8A7A6A5A401
:10530000A3A3A2A1A09F9F9E9D9C9C9B9A999998C4
:105310009797969595949393929191908F8F8E8E67
:105320008D8C8C8B8B8A89898888878786858584F4
:1053300084838382828181800000FF070000F87FE0
:10534000DFF848C170B51CEA111E1EBF1CEA131518
:105350009EEA0C0F95EA0C0F00F06F8081EA0304BF
:1053600023EA4C134EEAD47E21EA4C1141F4801119
:1053700043F48013AE44A1FB024CA0FB0365AEF1E5
:105380007F7E361955EB0C05A1FB034C4CF1000355
:10539000A0FB021C16EB0C06654153F10003094209
:1053A00018BF46F0010613F4007F0BD14FEA03311A
:1053B0004FEA0530340341EA155140EA16506FF0C8
:1053C00003020AE04FEAC3214FEAC520F40241EA92
:1053D000555140EA56506FF0020202EB2E4201EBAB
:1053E000025585EACE710AD05FEA440C18BF24F05A
:1053F000004450F1000041F1000120EAD47040F275
:10540000FE7C624500D270BDA84214BF4FF08044BC
:105410004FF04044002E08BF0024BEF1806FA8BFAB
:10542000A1F1C041BDE8704080F282804FF00000E1
:1054300001F1C04101F0004170479EEA0C0F0CEAF7
:10544000131518BF95EA0C0F06D04FF0000081EA43
:10545000030E0EF0004170BD00F01CF88900013E03
:1054600000F007B800F009B84FEA430C5FEA5C5C53
:1054700008D081EA030100F05BB84FEA410C5FEA13
:105480005C5CF6D14FF00000014970470000FF0757
:105490000000F87F0EF1020E2EF0030E5EF8046B92
:1054A000364205D4012A43EB030515F5001F12D837
:1054B000012841EB010C1CF5001F0CD80ED14FEA5E
:1054C000D17C15F5001F0CEB4C0C0CF1020C08BF45
:1054D0004CEBD37C04E04FF0080C01E04FEAD37CA6
:1054E0000CEB4C0526FA05F606F00706B6F1040C9F
:1054F00006D20EEB860CBDE870404CF0010C604704
:10550000DFE80CF0090B02024FF000414FF0000001
:10551000A1F5002170BD19461046012851EB010488
:1055200018BFD4F5001484BF002001F0004170BD05
:105530000808A0F500114FEA3101704710B591EA53
:10554000030F48BF83F000433FF502AD841A71EBAF
:10555000030C07D212198CF0004C43EB0C03001B18
:1055600061EB0C01DFF8A4E14FEA1154A4EB135CEA
:105570001EEA430F18BF9EEA445F00F0B08023EAA2
:105580006E03524221EA0451C3EB6E0338BF5B1E27
:10559000DCF1200E25D322FA0CFE10EB0E0043FAAC
:1055A0000CFE41EB0E01CCF1200E03FA0EFE10EBC7
:1055B0000E0051F10001CCF1200E29D412FA0EF2A6
:1055C00001EB0451BDE8104058BF7047401C1CBFA0
:1055D000B2F1004F704700280CBF491C20F00100B9
:1055E000704712EB020E43EB030218BF4FF0010E9F
:1055F0004EEA4202ACF1200CDCF11E0E54D943FA03
:105600000CFE10EB0E0051F1FF31CCF11E0ED5D582
:105610000EF1010E12FA0EFE404141EB010101EBC9
:10562000445C5FEA5C5C10D910EBDE7001EB045166
:1056300038BFBEF1004FBDE8104018BF70470028CA
:105640000CBF491C20F00100704730D24FEAD42C27
:1056500011F5001124F400641BD0B1FA81F20B3A69
:10566000A41AA41ED2F12003914030FA03F3194387
:10567000904001EBCC71002C01EB0451BDE81040CF
:10568000A8BF704701F1C0414FF0000001F0004198
:105690007047B0FA80F310FA03F100D110BDE41A9C
:1056A000173C4805C90AE4E701EB045110BD491055
:1056B00001EB0451BDE810404FEA300002E04FF02A
:1056C000000170474A0008BF0042F8D0B2F5001F41
:1056D00028BF704701F000414FF0000070479EEA7C
:1056E000445F07D011EA5E0FBDE8104004BF0021FF
:1056F00000207047BDE8104070B5FFF7CBFE00BF3B
:1057000040DFF63E83F00041104670470000E0FFA6
:1057100043004FEAD30C4FEA3C0C43401FBF400705
:105720000CF1605113F0FE4F70471CF0006F03D175
:1057300000200CF0004170470CF0004343EA507029
:1057400010B540EACC0000F042F800BF0000009223
:105750004FEA0001FFF7ECBE4FF000414FF00000B0
:10576000A1F5002170470000C10DD1F19E0206DBBA
:105770004FEA002343F0004323FA02F0704700424F
:1057800007D54FEA4001B1F1FE4F02D24FF00000C1
:10579000704710B500F01BF8499224800020704734
:1057A0006FEA200070470000B0FA80F310FA03F2AD
:1057B000C3F19D030AD0D90501EB1220530638BF6F
:1057C000704700F1010008BF20F0010070470EF1A2
:1057D000020E2EF0030E5EF8044B244204D44FEA6E
:1057E0004102B2F17F4F11D84FEA4003B3F17F4F2E
:1057F0000CD80ED14FEAD07CB2F17F4F0CEB4C0CA1
:105800000CF1020C08BF4CEBD17C04E04FF0080C0B
:1058100001E04FEAD17C0CEB4C0324FA03F404F0D2
:105820000704B4F1040C06D20EEB840CBDE8104062
:105830004CF0010C6047DFE80CF0070802024FF063
:105840000040A0F5800010BD0846420018BFD2F10C
:10585000807288BF00F0004010BDFF2141EAD050A7
:10586000C0057047FEF7AFB9040000080000000053
:105870000000000200010000100000000000000015
:105880000000000030313233343536373839414288
:105890004344454640305800303132333435363792
:1058A0003839616263646566403078000240000008
:1058B000000000A00000000005400000000000C83B
:1058C000000000000C4000000000409C00000000B0
:1058D000194000000020BCBE000000003440000061
:1058E000BFC91B8E00000004B5400000504BCFD054
:1058F0006607E2CF010000006C4100003E8251AA21
:10590000DFEEA73401000000D9420000DCB5A0E2C0
:105910003A301F97FFFFFFFFB4450000FD25A0C8E8
:10592000E9A3C14FFFFFFFFFFF3F00000000008021
:1059300000000000FF3F00000000008000000000A9
:105940008C5A0008000000203C0000006C01000898
:10595000C85A00083C000020E40800008801000844
:105960001C00000043000000F8FFFFFF0C000000D7
:105970000E0000000F0000002E00000010010000CB
:1059800043000000F8FFFFFF00404040404040401F
:105990004040414141414140404040404040404002
:1059A00040404040404040404005020202020202A6
:1059B00002020202020202020220202020202020F5
:1059C0002020200202020202020290909090909009
:1059D00010101010101010101010101010101010C7
:1059E000101010100202020202028888888888883B
:1059F0000808080808080808080808080808080827
:105A0000080808080202020240000000000000002E
:105A10000000000000000000000000000000000086
:105A20000000000000000000000000000000000076
:105A30000000000000000000000000000000000066
:105A40000000000000000000000000000000000056
:105A50000000000000000000000000000000000046
:105A60000000000000000000000000000000000036
:105A70000000000000000000000000000000000026
:105A800000000000000000000000000000A24A0426
:105A900000000000000000000102030406070809DE
:105AA00000000000010203040102030406070809C4
:105AB00002040608000000000000000000000000D2
:085AC0000000000000000000DE
:0400000508000131BD
:00000001FF
